:020000040800F2
:10000000700A0020D5000008E554000851310008AE
:1000100000000000000000000000000000000000E0
:1000200000000000000000000000000085560008ED
:1000300000000000000000003D550008C156000807
:10004000E7000008E7000008E7000008E7000008F4
:10005000E7000008F3120008E7000008FD1200089E
:10006000E7000008E7000008E7000008E7000008D4
:10007000E7000008E700000800000000E7000008B3
:1000800000000000E7000008000000000000000081
:10009000E700000800000000E7000008E700000893
:1000A000E7000008E7000008E7000008E700000894
:1000B000E7000008E7000008E7000008E700000884
:1000C0000348854600F046FB00480047F1670008FA
:1000D000700A00200448804704480047FEE7FEE716
:1000E000FEE7FEE7FEE7FEE739570008C10000081B
:1000F00030B50B46014600202022012409E00D46C0
:10010000D5409D4205D31D469540491B2546954047
:1001100040191546521E002DF1DC30BD70B500248B
:100120002546002801DA01244042002901DA012590
:100130004942FFF7DDFFAC4200D04042002C00D026
:10014000494270BD10B503461C460C43A40703D0BA
:1001500009E010C9121F10C3042AFAD203E00C7878
:100160001C70491C5B1C521EF9D210BDD2B201E0BA
:100170000270401C491EFBD270470022F6E710B502
:1001800013460A4604461946FFF7F0FF204610BD05
:10019000421C0178401C0029FBD1801A704703469D
:1001A00003220870000A491C521EFAD518467047EF
:1001B000F8B502464A40D40F42004B0052085B0893
:1001C0009A4202D20246084611464A0023D0C30D85
:1001D0004A00DDB2120EAD1A202D35DA4902012691
:1001E000490AF6058A19002C00D0524220214F1BE3
:1001F0001146B9402A411018C20D9A4221D0002C54
:1002000017D0012D08DCDA05801AD20F8019D20729
:10021000DBB200F007FAF8BDDA05801A01234000CE
:100220001B06C01880185A428018CA0F1043490094
:1002300007E04908C2071143DA05801A801940080F
:10024000801800F0E7F9F8BD61000122511A001B87
:10025000F7E70122D2075140AAE70122D207504016
:10026000A6E7024670B54A40D30FDB0740002DD009
:100270004A002AD0010E140E000212020919400A87
:10028000520A8418E50104465443000A120A2E0457
:100290005043A4194219200CC543AA18120C012579
:1002A000AD03521C521912047F39240400D0521C91
:1002B000104301D44000491EC2B20C06C0092018E8
:1002C000401C4008802A02D003E0002070BD400896
:1002D0004000002900DA0020184370BD70B50246C6
:1002E0004A40D50F40004A00ED0740085208002858
:1002F00014D0002A12D0C40DD30D41020120C00534
:100300005202490A520AE41A091812187D3491421D
:1003100001D3641C00E04900002C01DA002070BD0C
:100320000023914201D3891A034340084900002861
:10033000F7D100290AD0914202D10121C90705E075
:10034000914201D2012101E00121C943E005C01819
:10035000401900F05FF970BDF0B5074608465840F7
:1003600087B0C00F049048000E4659004008490865
:10037000BC1A884105D2384631461E4617460B4600
:1003800002465800400810434CD0300D0390400501
:100390005900400D490D0590401A0290402872DA2C
:1003A00018030121000B09050843019004980092ED
:1003B000002805D001995242002088410092019006
:1003C000029840210A1A0199009800F0EFF80546BA
:1003D0000C466B4607CB00F00AF9C0197141039A2D
:1003E0000E0D0023D71756401A467A40164344D0C4
:1003F000049A002A2DD0029A012A039A15DC1205CC
:10040000C01A914101263605001C7141D20F059E8C
:10041000D2070093019202962A46234600F048F93B
:1004200007B0F0BD38463146FAE71605224A0F46B6
:10043000B218C01AB74101210905001C4F4100182C
:100440007F41114618187941E20F10436D1964413C
:1004500013E0E2076D0815436408C2071443039ACA
:1004600001261205C01A91413605001C7141CE07C4
:10047000400830434908C01851412A46234600F03D
:100480000AF9CDE7FFE7049801224000C117121ACC
:1004900000238B4104983146C417381AA141EEE776
:1004A00030B40124E407634030BC55E730B4012484
:1004B000E407614030BC4FE70000E0FFC217C10F06
:1004C000504010B54018CA079623002100F0AAF842
:1004D00010BD10B500229623114600F0A3F810BD00
:1004E000C20F410040020123400ADB05D207090E7A
:1004F000C0187F2901DA00207047962903DC962373
:10050000591AC84001E096398840002AF4D0404288
:100510007047410040020122400AD205090E8018AE
:100520007F2901DA00207047962903DC9622511AB0
:10053000C8407047963988407047000070B5CD0FAD
:100540004A0009030123090B1B0519430B4BED0757
:100550000024520D9A4201DA002070BD074B34335B
:100560009A4203DC9A1A00F031F802E0044951186B
:1005700088402C43F1D0404270BD0000FF030000D2
:10058000CDFBFFFFC20FD207400040080BD0C10DCA
:100590000723DB01C91840020905400A1143C208BC
:1005A00040071143704700200146704710B5202ACC
:1005B00004DB0146203A9140002010BD91402023E9
:1005C0009C1A0346E3401943904010BD10B5202A01
:1005D00004DB0846203AD040002110BD0B46D34032
:1005E000D0402024A21A91400843194610BD10B5EE
:1005F000202A06DBCB170846203A1041C1170B43CF
:1006000006E00B461341D0402024A21A9140084333
:10061000194610BD002904DA401C490001D14008E8
:100620004000704770B40024050C05D1102400046C
:1006300002D1002921D01124050E01D10002083475
:10064000050F01D10001241D850F01D18000A41CDC
:10065000002801DB4000641C002908D020252E1B47
:100660000D46F540A14000D0012129430843010671
:100670001B1B000ADB1D02D5002070BC7047DB0588
:10068000181880180029F8DA401C4900F5D170BC10
:1006900040084000704710B5002B08DA0024401CC9
:1006A000614192185B411A4301D14008400010BDDE
:1006B000F0B51FB482B005460C0003D0084605F023
:1006C000DBF802E005F0D8F8203002460090214621
:1006D0002846FFF76BFF049B059A04460F46184314
:1006E0001143084314D0184610431BD000984021F2
:1006F0000A1A18460599FFF769FF05460E46009A43
:1007000005990498FFF752FF084305D0012004E043
:100710002046394607B0F0BD0020C11705430E43FF
:100720002C43374300990E986305401A7905E40A73
:1007300000220C43FD0A0A3002D500200146E9E7F9
:100740000105101969410C9C0D9D00196941FFF7C5
:10075000A2FFDFE7064C0125064E05E0E36807CC63
:100760002B430C3C98471034B442F7D3FFF7ACFC52
:10077000C4690008E469000870B58C180578401C4D
:100780006B075B0F01D10378401C2A1106D1027858
:10079000401C03E006780E70401C491C5B1EF9D11A
:1007A0002B0705D40023521E0DD40B70491CFAE709
:1007B0000378401CCB1A921C03E01D780D70491C75
:1007C0005B1C521EF9D5A142D8D3002070BD000099
:1007D0000EB50E496A46088810710012507188885B
:1007E00090710012D071088910720012507201A825
:1007F00000900748062301890022C08805F0B8FB55
:10080000002801D047200EBD00200EBD1802002098
:100810000C00002010B5024A022102F031FF10BD89
:1008200018020020F0B58BB01B2769460F77C52052
:100830004877D5208877A520C877022508A90D70AC
:1008400000244C70B42088709A20C870E120087190
:10085000112048713A208871CF26CE71802008720D
:100860006E204872362088720120C8721F4800909E
:100870000723012207A9022005F0F7FA002830D14A
:1008800069460F77C5204877D5208877A520C87797
:1008900008A90D704C70B42088709A20C870E120AF
:1008A0000871112048713A208871CE718020087239
:1008B0006E204872362088720320C8720B481021BF
:1008C000801C0422009502920391059004940194E7
:1008D0000838062307AA0221C08805F0FAF9002883
:1008E00002D047200BB0F0BD0020FBE71200002033
:1008F000F0B591B01B2508A90D75C5244C75D52000
:100900008875A520C8750220087600204876B42096
:1009100088769A26CE76E1270F77112048773A20FD
:100920008877CF20C877802010A908706E20487083
:10093000362088700420C870614800900A23012284
:100940000DA9022005F091FA00287DD108A90D75A6
:10095000C5204875D5208875A520C8750220087661
:1009600000244C76B42088769A20C876E120087757
:10097000112048773A208877CF20C877802010A9A7
:1009800008706E204870362088700520C8704C486A
:100990001021801C0590022003910346014600901F
:1009A000474804270297049401940A380DAA408905
:1009B00005F08FF900287DD10E2108A80172611E73
:1009C000417240496846418508A804734473210A6E
:1009D00081733D490C9109A8102106910890059456
:1009E00007940AAA072001AB15C30121344E0491D4
:1009F0000A3E00900A460CABB189708905F0C4F933
:100A0000002857D108A80575C5214175D5218175E4
:100A1000A521C175022101764476B42282769A22FC
:100A2000C276E1220277112242773A228277CF22E0
:100A3000C277802210A802706E2242703622827025
:100A40000725C570324600E034E00E3205921020D2
:100A50000091049402230297019403900DAA194671
:100A6000708905F036F9002824D10E2008A90872F3
:100A7000601E4872272000026946488508A90C7349
:100A80004C73200A887310480C9009A81021089014
:100A900006910120059407940AA9019500950394F5
:100AA0000291049002460CABF189708905F06CF953
:100AB000002802D0472011B0F0BD0020FBE7000065
:100AC000160000202F27000004290000F0B58BB08D
:100AD0001B2569460D77C5264E77D5208877A5203A
:100AE000C877022008A9087000244C70B4208870D0
:100AF0009A20C870E1200871112048713A278F713F
:100B0000CF20C871802008726E204872362088720B
:100B10000B20C872204800900723012207A9022059
:100B200005F0A3F9002832D169460D774E77D5201C
:100B30008877A520C877022008A908704C70B420D7
:100B400088709A20C870E1200871112048718F7157
:100B5000CF20C871802008726E20487236208872BB
:100B60000C20C8720C490120891C02900490059148
:100B70000E2000901022084803920194103804239C
:100B800007AA0221008A05F0A4F8002802D0472015
:100B90000BB0F0BD0020FBE71C00002010B5094B96
:100BA0005C8A641CA04208D1012906D11078987093
:100BB000002803D0002000F08DF910BD002000F0C7
:100BC00079F910BD0C00002010B50D480B490160EB
:100BD000FF210531416000218160C16001614161F7
:100BE000012252028261016241620722C26208222E
:100BF000C261816201F0C2FA10BD00000030014004
:100C00006002002010B500F0E7FC10BD70B505468D
:100C10001B4CE078012822D004F035FD012820D0BB
:100C2000BC202070BE2060700026A670E670267181
:100C3000012060711348A0601349E1602661134AE6
:100C4000011F0A600160466020462C60E168096867
:100C5000002908D0884701280BD0002070BD012052
:100C600070BD012070BD1421FFF787FA2E600120AE
:100C700070BD14212868FFF780FA2E60012070BD36
:100C8000B0050020640000207C000020E40000206B
:100C900070B505461C4CE078012823D004F0F3FC25
:100CA000012821D0BC202070BE2060700026A670D4
:100CB000E67026710120607120465030A060134913
:100CC000E16026611349124A0A60016046602046CD
:100CD0002C60E1680968002908D0884701280BD0FA
:100CE000002070BD012070BD012070BD1421FFF7F0
:100CF00044FA2E60012070BD14212868FFF73DFAE8
:100D00002E60012070BD0000C4050020B00000204E
:100D1000E40000206C00002010B500280AD0C26852
:100D2000002909D09269002A08D09047012807D0ED
:100D3000002010BD012010BD012010BD012010BDFC
:100D4000012010BD10B50246084600210160002AAE
:100D500004D0FFF75BFF012804D110BDFFF756FF59
:100D6000012801D0002010BD012010BD002805D0B1
:100D7000002905D0C0780870002070470120704716
:100D80000120704710B5002808D0C1688968002983
:100D900006D08847012805D0002010BD012010BDD5
:100DA000012010BD012010BD10B50724E443054803
:100DB00002F00CFA034800F078FC002800D100246F
:100DC000204610BD2402002070B500240F490E48B3
:100DD0000860084600F080FC002812D10B4802F0A1
:100DE00007FA0A4804F054FB0725ED43002801D018
:100DF0002C4606E00021054800F0F4FB002800D056
:100E00002C46204670BD0000005400402402002003
:100E10003EB50724E44300927D250A46ED00019388
:100E2000014602950123044800F0B2FC002800D1DD
:100E3000002420463EBD0000240200203EB50D46A1
:100E40000724E4437D21C900029101930092C1B2BD
:100E500001232A46034800F041FD002800D1002468
:100E600020463EBD24020020F0B587B00E49CA6A74
:100E700001231A43CA62C96A194001910B4E450009
:100E8000715B029103930021049103210591084FA6
:100E90008400385902A900F0E5FA715B3859002244
:100EA00000F093FB07B0F0BD00100240526900084B
:100EB0002C00002010B5054A4100515A044A800018
:100EC0001058002200F081FB10BD0000526900089C
:100ED0002C00002010B5054A4100515A044A8000F8
:100EE0001058012200F071FB10BD0000526900088B
:100EF0002C00002070B50546214CE07F01282DD044
:100F000004F0C1FB01282BD0B1202077B8206077F6
:100F10000320A0770026E6772046203006700121C6
:100F200041700146283140384164164981641649B0
:100F3000C164174815490160214630318861CE618E
:100F4000084614382860C168096800290AD0884713
:100F500001280DD002F0DEFE002070BD012070BD22
:100F6000012070BD1421FFF708F92E60012070BD2B
:100F700014212868FFF701F92E60012070BD0000E0
:100F8000E4050020240100205801002094010020E5
:100F900078000020F8B505460C4614202E4F684313
:100FA000C019C07801280ED004F06DFB01280CD0C8
:100FB00039460122BD205031284B0026012D06D094
:100FC000022D32D118E00120F8BD0120F8BD38759E
:100FD000BA207875BA75FE753E767A761E48583016
:100FE000F8613B627E621F481D4A02608860CE60E5
:100FF00019481430206018E0174D20352872B820A9
:1010000068720220A872EE722E736A73284640300E
:1010100038637B63BE63124A1248121D001D0260D2
:1010200008614E612846083020602068C168096860
:10103000002904D08847012807D00020F8BD1421DA
:10104000FFF79BF826600120F8BD14212068FFF708
:1010500094F826600120F8BDC4050020E8000020B7
:101060001C0100207000002010B500280AD0C268C2
:10107000002909D09269002A08D09047012807D09A
:10108000002010BD012010BD012010BD012010BDA9
:10109000012010BD10B50C460021216000281BD096
:1010A00001281FD0022824D0032829D02046FFF78A
:1010B00021FF012829D121460220FFF76BFF0128DB
:1010C00023D12046FFF7E4FD01281ED12146FFF77A
:1010D00061FF012819D110BD2046FFF7D9FD012875
:1010E00013D110BD21460120FFF754FF01280CD178
:1010F00010BD21460220FFF74DFF012805D110BD8C
:101100002046FFF7F7FE012801D0002010BD012086
:1011100010BD002805D0002905D0C0780870002037
:101120007047012070470120704710B5002808D093
:10113000C1688968002906D08847012805D00020A9
:1011400010BD012010BD012010BD012010BD10B543
:1011500005200121000700F031FA012801D000200C
:1011600010BD012010BD70B5FF24052501342D07E9
:1011700000222146284600F028FA052000F0E6F873
:1011800001222146284600F020FA052000F0DEF872
:1011900070BD0000F7B588B00E4617460024FF204A
:1011A000079022A003C80591049005200022022187
:1011B000000700F00AFA0F200090052302AA04A9F4
:1011C000089801F0B3F86946087A02281AD16846EF
:1011D000007B05026846C07A0543002D12D0BD424F
:1011E00000D93D460F270BE0012306AA07A9009767
:1011F000089801F09BF86846007E3055641CE4B204
:10120000AC42F1D3052001220221000700F0DDF9F4
:101210000020019003E000BF0198401C019001985C
:101220000228F8DB20460BB0F0BD00000B000000E8
:1012300000000000FFB5C5B04E9E1D46002421A051
:1012400003C84491439021A003C84291419000F00B
:101250004BF8052000220221000700F0B6F90F2705
:10126000052341AA43A90097459801F05FF840A8DB
:10127000007902280BD0641E0520012202210007FC
:1012800000F0A3F900F046F8204649B0F0BD40A8B0
:101290004079A919884212D3002D06D000972B4619
:1012A00001AA4699459801F041F8002EE4D0334652
:1012B00001AA00974799459801F038F8DCE7012426
:1012C000E443D9E70A00000000000000AA00000083
:1012D00000000000014901204861704700040140FE
:1012E00010B500F079F910BD10B5052000F0CCFB69
:1012F00010BD10B5012000F0A9F810BD10B50120F7
:10130000400300F0A3F802490120087010BD00005E
:101310000000002010B5052000F0C0FB10BD00004B
:1013200004480122426181800520401E0028FCDC27
:10133000704700000C000020034800214161012299
:1013400002704170704700000C00002031B500F0C1
:1013500043F9044600F040F90099001B8842F9D394
:1013600038BD0000F0B58E4600225BE001239340BB
:101370009C4671460B40002B53D001685500032456
:10138000AC40A1430160D10889000D182F6A5607AF
:10139000F10E0F268E40B7432F628168A143816012
:1013A00041686546A9434160C168A143C160940892
:1013B0001E49A4006518AC6891070F0F0F26394627
:1013C000BE403746274005242407A04201D100240F
:1013D00014E0174CA04201D101240FE0154CA042AB
:1013E00001D102240AE0144CA04201D1032405E0FB
:1013F000124CA04201D1052400E006248C40BC42DE
:101400000FD1A968B143A9600D490C689C430C60D9
:101410004C689C434C608C689C438C60CC689C43BB
:10142000CC60521C7146D140A0D1F0BD00000140FB
:101430000004005000080050000C0050001C005038
:101440000004014010B501F06BF910BD10B504495E
:101450004A69024202D04861FFF7F4FF10BD000064
:1014600000040140F0B5002293E001249440A4461A
:101470002340002B7ED04C68022C01D0122C0CD1C2
:10148000D408A40027183D6A5407E40E0F26A6408E
:10149000B5430E69A6402E433E624C68012C05D030
:1014A000022C03D0112C01D0122C11D185685400CC
:1014B0000326A640B543CE68A6402E438660446806
:1014C0006546AC430D79ED06ED0F9540254345602B
:1014D000076854000325A540AF430E79B607B60F41
:1014E000A6403E430660C668AE438D68A5403543BE
:1014F000C5604C68E4004BD5294D6C6B0126344324
:101500006C639508274CAD002D19AF689407240F24
:101510000F26A640B74305263607B04201D1002664
:1015200014E0214EB04201D101260FE01F4EB0421F
:1015300001D102260AE01E4EB04201D1032605E089
:101540001C4EB04201D1052600E00626A6403E43CF
:10155000AE60194D2C689C434E68F60300D51C43C1
:101560002C606C689C434E68B60300D51C436C60CD
:10157000AC6800E00CE09C434E68F60200D51C43CA
:10158000AC60EC689C434E68B60200D51C43EC602E
:10159000521C0B681C46D44000D066E7F0BD00002A
:1015A00000100240000001400004005000080050FC
:1015B000000C0050001C005000040140006908426B
:1015C00001D00120704700207047002A01D08161BE
:1015D0007047816270470000014800687047000052
:1015E0004400002070B502462032537D022B27D0E4
:1015F000537D122B24D0537D222B21D0537D322BAF
:101600001ED0537D422B1BD0137D012B1AD00124F9
:1016100014750223537503681D68A5431D60036894
:101620001D682603B5431D6003681D680D431D60DA
:10163000006801682143016054750020107570BD79
:10164000022070BD022070BD70B502462032537D6D
:10165000022B26D0537D122B23D0537D222B20D05A
:10166000537D322B1DD0537D422B1AD0137D012B7D
:1016700019D0012414750223537503681D68A5430E
:101680001D6003681D680F263602B5430902294311
:1016900019600068016821430160547500201075CD
:1016A00070BD022070BD022070BD70B50446002CD4
:1016B00010D0022025462035687520680168490849
:1016C00049000160204600F0B3F90020A06368756E
:1016D000287570BD012070BD2030407D704700002E
:1016E00070B50446002C06D025462035687D0026BE
:1016F000002802D005E0012070BD2E75204600F0C4
:1017000098F902206875206801684908490001605D
:101710000F21606809068843216808612068826893
:101720000121C9038A438260A068002807D0E268CB
:10173000012A08D021218902084321688860E068D5
:10174000022804D007E0084321688860F7E70120F9
:101750002168C0024860206841680C4A114341601A
:10176000616920690843A169090208432168C860CA
:10177000216AE06908432168086020680268012145
:101780000A430260A6636975002070BD00800002F4
:10179000FFB581B00B9C064637462037787D01287F
:1017A00002D0022005B0F0BD0A98002808D0002C15
:1017B00006D030688069C043000403D40220F1E7FA
:1017C0000120EFE7387D012814D001203875622010
:1017D00078750020B0630C9800903046029901F0B3
:1017E0000BFE00280CD0B06B042805D00020387503
:1017F0000320D7E70220D5E7002038750120D1E784
:1018000009208002FF2C09D9012300901B06FF222A
:101810003046029901F06EFEFF2508E0012300909A
:10182000E2B25B063046029901F064FE25460022D2
:10183000042130460C9B01F06FFE002801D00320EC
:10184000B0E73068406A0A9908700A98401C0A900C
:101850006D1E641EA4B2002D22D1002C20D00022C7
:10186000802130460C9B01F057FE002801D0032058
:1018700098E7FF2C0AD90020012300901B06FF22C5
:101880003046029901F036FEFF2509E000200123D1
:101890000090E2B25B063046029901F02BFE25462D
:1018A000002CC4D11921304601F072FE002806D068
:1018B000B06B042801D0032074E7012072E731687F
:1018C0002020C86130684168034A1140416001200E
:1018D00078750020387565E700E800FEFFB581B037
:1018E0000B9C064637462037787D012802D002201F
:1018F00005B0F0BD0A98002808D0002C06D030684A
:101900008069C043000403D40220F1E70120EFE71F
:10191000387D012814D001203875522078750020B8
:10192000B0630C9800903046029901F0A4FD0028A5
:101930000CD0B06B042805D0002038750320D7E701
:101940000220D5E7002038750120D1E7FF2C0AD905
:101950000020012300901B06FF223046029901F06F
:10196000C9FDFF2509E0002001230090E2B25B06DB
:101970003046029901F0BEFD254630460C9901F033
:101980002FFE002806D0B06B042801D00320AFE75B
:101990000120ADE70A983168007888620A98401CF7
:1019A0000A906D1E641EA4B2002D22D1002C20D0FE
:1019B0000022802130460C9B01F0AEFD002801D0B2
:1019C000032095E7FF2C0AD90020012300901B0675
:1019D000FF223046029901F08DFDFF2509E000202D
:1019E00001230090E2B25B063046029901F082FDCD
:1019F0002546002CC1D11921304601F0C9FD00282F
:101A000006D0B06B042801D0032071E701206FE7F6
:101A100031682020C86130684168044A1140416043
:101A2000012078750020387562E7000000E800FEAC
:101A30007047704702480168491C01607047000008
:101A40004400002010B5064801680222914301605D
:101A5000032000F007F800F016F8002010BD000089
:101A60000020024010B5044600F0DCF87D21C900DA
:101A7000FEF73EFB00F0D8FD00222146501E00F08C
:101A800017F8002010BD7047C106C90E012088401C
:101A9000014908607047000080E100E0C106C90EFE
:101AA00001208840014908607047000000E100E023
:101AB00010B503F019FD10BDF8B504460E465648A2
:101AC0000068C007C00FB0420CD2534801684908F3
:101AD0004900314301600068C007C00FB04201D027
:101AE0000120F8BD20784D4F800705D5F868F0211A
:101AF0008843A1680843F8602078C00760D0606818
:101B0000022808D000280BD003280ED039684907D6
:101B100010D40120F8BD396889030BD40120F8BD29
:101B20003968890506D40120F8BD3968890101D4D6
:101B30000120F8BDF968890889000143F960FFF7C1
:101B40004BFD0546606802280CD0032818D00028F9
:101B500024D030E0FFF740FD411B3148814201D9DC
:101B60000320F8BDF8680007800F0228F2D127E0B3
:101B7000FFF732FD411B2A48814201D90320F8BDFD
:101B8000F8680007800F0328F2D119E0FFF724FD61
:101B9000411B2348814201D90320F8BDF8680007A2
:101BA000800FF3D10CE0FFF717FD411B1C48814269
:101BB00001D90320F8BDF8680007800F0128F2D191
:101BC00015480168C907C90FB1420BD3016849081C
:101BD0004900314301600068C007C00FB04201D026
:101BE0000120F8BD2078400706D5F86807210902D2
:101BF0008843E1680843F8602078000707D5F86853
:101C00000721C90288432169C9000843F8600320FD
:101C1000FFF728FF0020F8BD00200240001002401E
:101C20008813000010B500F011F80549C968054A8D
:101C30000906090F515CC8400349086010BD000047
:101C4000001002406F6900084000002010B5214BD1
:101C500058680004420FD9680C2001401E4808D083
:101C6000042909D008290ED00C290ED0521C90400E
:101C700010BD521C904010BD1868C00601D5174811
:101C800010BD174810BD174810BDD8680F21890432
:101C90000840D968032292051140134A800C105C59
:101CA000890D491CDA68012424042240002A04D04A
:101CB0000C4A5043FEF71CFA10BD1A68D20604D530
:101CC000064A5043FEF714FA10BD054A5043FEF78A
:101CD0000FFA10BD001002400080000000093D0016
:101CE0000024F40000127A0066690008FEB504467C
:101CF0002078FD4EC00756D0F0680007800F0228FC
:101D000007D0F0680007800F03280AD1F068C003ED
:101D100007D53068800346D56068002843D101208C
:101D2000FEBD012160680904884203D13068084380
:101D3000306018E0052301221B049204984209D167
:101D40003068884330603068104330603068084342
:101D5000306008E0306888433060306808400190A7
:101D6000306890433060606800280ED0FFF734FC84
:101D7000054606E0FFF730FC401B642801D903202C
:101D8000FEBD30688003F5D50DE0FFF725FC054664
:101D900006E0FFF721FC401B642801D90320FEBDAB
:101DA00030688003F5D4207880074BD5F0681F2772
:101DB0000007800F3F02012807D0F0680007800F5E
:101DC000032811D1F068C0030ED43068400704D551
:101DD000E068012801D00120FEBD70682169B84388
:101DE0000902084370602DE0E0680921002818D03E
:101DF00032688A4302433260FFF7EEFB054606E095
:101E0000FFF7EAFB401B022801D90320FEBD306822
:101E10004007F5D570682169B8430902084370602E
:101E200010E0306888433060FFF7D6FB054606E0D7
:101E3000FFF7D2FB401B022801D90320FEBD30680A
:101E40004007F5D42078C00652D5F068A74F0007A8
:101E5000800F0BD0E069002837D03068FF210131B6
:101E600008433060FFF7B8FB05461EE03068800588
:101E700002D5E06900280FD07068616AB843084352
:101E800070607068218C0002000A090608437060C7
:101E90000320FFF7E7FD2BE00120FEBDFFF79CFBD1
:101EA000401B022801D90320FEBD30688005F5D50E
:101EB0007068616AB843084370607068218C0002E2
:101EC000000A09060843706012E03168FF20013003
:101ED00081433160FFF780FB054606E0FFF77CFB9E
:101EE000401B022801D90320FEBD30688005F5D4CF
:101EF00020787F4D000727D56069002812D0286917
:101F0000012108432861FFF767FB074606E0FFF75A
:101F100063FBC01B022801D90320FEBD286980078E
:101F2000F5D511E02869400840002861FFF754FB0F
:101F3000074606E0FFF750FBC01B022801D903202B
:101F4000FEBD28698007F5D42078800634D5A169C4
:101F50006848002919D0B16801221143B160716B42
:101F600011437163016A644A11430162FFF734FB54
:101F7000074606E0FFF730FBC01B022801D903200B
:101F8000FEBDB0688007F5D516E0B1684908490084
:101F9000B160016A584AD24311400162FFF71CFB4D
:101FA000074606E0FFF718FBC01B022801D90320F3
:101FB000FEBDB0688007F5D4207840076FD50020BB
:101FC00001900090B06BC00006D4B06B01210907EE
:101FD0000843B0630120019048480068C00515D44B
:101FE0004648016882151143016001200090FFF707
:101FF000F3FA074606E0FFF7EFFAC01B642801D9A1
:102000000320FEBD3D480068C005F4D5FF27A06849
:102010000137B84203D12869384328611EE0012105
:10202000890200280DD005221202904210D12869A1
:10203000B843286128690843286128693843286122
:102040000CE02869B843286128698843286105E0C5
:102050002869B8432861286988432861A068002856
:1020600010D0FFF7B9FA029008E0FFF7B5FA02992D
:10207000411A2348814201D90320FEBD2869800509
:10208000F3D510E0FFF7A8FA029009E0FFF7A4FAF1
:102090000299411A1A48814202D90320FEBD10E07C
:1020A00028698005F2D40098012803D113480168FB
:1020B000B94301600198012803D1B16B0007814346
:1020C000B163A06A002855D0F1680907890F032978
:1020D00052D001273F06022814D03068B843306040
:1020E000FFF77AFA044642E00010024000E00000E8
:1020F000401002400000014001200000007000403C
:10210000881300003068B8433060FFF765FA054671
:1021100006E0FFF761FA401B022801D90320BDE762
:1021200030688001F5D4616B206BF2680843E16A86
:10213000FD231B049A4311430843F0603068384381
:102140003060FFF749FA044606E0FFF745FA001B46
:10215000022801D90320A1E730688001F5D509E004
:10216000FFF73AFA001B022801D9032096E73068EE
:102170008001F5D4002091E701208FE770B5044677
:10218000002C06D025464035687C0026002802D069
:1021900005E0012070BD2E74204600F033F80220C7
:1021A000687420680168402291430160A1686068FA
:1021B00022690843E1681143084361690122084329
:1021C000A169520211400843E1690843216A0843AA
:1021D000A16A084321680860A0690421000C084036
:1021E000616A0843216848602168E06A08612068E4
:1021F000C16992009143C161666501206874002045
:1022000070BD0000F0B587B00068444988427CD1B9
:102210004348C16A01242143C162C16A214001913E
:10222000C16A02263143C162C16A31400191C16A6B
:102230002143C162C16A21400191C16A2143C16247
:10224000C16A21400191C16A2143C162C16A214032
:102250000191C16A2143C162C16A21400191416B70
:102260008214114341638715029703940494002557
:1022700005950695052002A90007FFF7F3F805204C
:10228000002239460007FFF7A0F9082002900396C4
:10229000049603270597069502A92248FFF7E2F85E
:1022A000402002900396049505970695052002A903
:1022B0000007FFF7D7F88020029003960495059752
:1022C0000695052002A90007FFF7CCF802960394B3
:1022D000049405970695052002A90007FFF7C2F8A8
:1022E0000520012202210007FFF76FF902940E4832
:1022F0000390049505970695052002A90007FFF7AE
:10230000B1F800220321052000E004E0FFF7D0FB34
:102310000520FFF7C3FB07B0F0BD0000003001400F
:10232000001002400004005000001110F8B50446EF
:1023300000200090254640356E7C012E04D06E7C36
:10234000222E01D00220F8BD00290CD0002A0AD08C
:10235000002B08D02E7C012E07D001262E746E7C17
:10236000012E04D005E00120F8BD0220F8BD322680
:102370006E7400206065A263A387E3872163A38650
:10238000E386A064E0640126A06A7603B04207D128
:1023900020680168B1430160206801683143016031
:1023A00020680168490603D4016840221143016096
:1023B0000122D202FF21E0680531570090427ED110
:1023C0006068002804D088420CD1E08E012809D131
:1023D000206B21680088C860206B801C2063E08E21
:1023E000401EE086E08E00284DD1A06AB04203D1A5
:1023F0002068016839430160002201212046069BC4
:1024000003F0DAF8002801D00320F8BD2068C06886
:10241000A16B0880A06B801CA063E08F401EE0874A
:10242000C3E0002202212046069B03F0C5F80028E5
:1024300001D00320F8BD206B21680088C860206BA4
:10244000801C2063E08E401E80B2E086002806D10A
:10245000A06AB04203D120680168394301600022BC
:1024600001212046069B03F0A7F8002801D0032095
:10247000F8BD2068C068A16B0880A06B801CA063B9
:10248000E08F401EE087E08E0028CAD160680028F7
:1024900014D1002201212046069B03F08DF800286C
:1024A00002D00320F8BD0AE02068C068A16B088054
:1024B000A06B801CA063E08F401EE08775E0606821
:1024C000002804D088420BD1E08E012808D1206B6F
:1024D000411C216321680078C860E08E401EE086C0
:1024E000E08E002848D1A06AB04203D1206801687C
:1024F00039430160002201212046069B03F05CF86D
:10250000002801D00320CDE72068C068A16B0870C7
:10251000E08F401EE08748E0002202212046069B13
:1025200003F04AF8002801D00320BBE7206B411CD0
:10253000216321680078C860E08E401E80B2E0868A
:10254000002806D1A06AB04203D12068016839434F
:102550000160002201212046069B03F02DF800288F
:1025600001D003209EE72068C168A06B421CA263D3
:102570000170E08F401EE087E08E0028CCD16068BB
:10258000002812D1002201212046069B03F014F8F6
:10259000002801D0032085E72068C168A06B421C99
:1025A000A2630170E08F401EE087A06A0227B0425C
:1025B00011D1002201212046069B02F0FDFF0028D8
:1025C00004D0606D3843606503206BE72068C06805
:1025D000009069460888012280212046069B02F06F
:1025E000EBFF002805D0606D2021084360650320C3
:1025F00058E701206874A06AB04212D1206881684F
:10260000C943C9060DD4616D394361650168B143A1
:1026100001602068016831430160002028740120B6
:1026200040E7002028743DE710B50949401E884264
:1026300001D9012010BD074C60610321081F02F081
:1026400053FF0020A06107202061002010BD000082
:10265000FFFFFF0000E000E010B5421C00780428F6
:1026600016D11078052814D03E2815D0FF280FD198
:10267000921C50781178000208431A49401818D06B
:10268000132805D1507911790002084302F05EFF4A
:1026900010BDFEF751FE10BD901C01780129FAD142
:1026A000401C8178427809021143401DFEF738FE34
:1026B00010BD0D480078012809D0921CD07893787D
:1026C000117900021843521DFEF768FA10BD921CE2
:1026D000D0789378117900021843D21DFEF75EFA84
:1026E00010BD0000FFF3FFFF0800002070B50A488E
:1026F00003F098FE0848083003F094FE0024074DCC
:102700008C2060434119044803F09BFE641CE4B232
:10271000052CF5D370BD00004C000020B80200204D
:1027200008B500200090FEF7D5FD2CE0184803F016
:1027300094FE002802D0FEF7CDFD08BD694614487E
:1027400003F097FE0099802208311248FEF722FD1F
:10275000C1B2002911D000988822115400F04AF823
:10276000002804D00A48009903F05FFE09E00848F9
:102770000099083003F065FE03E00548009903F076
:1027800054FEFEF7A7FDFEF7E2FC0028CED108BDFF
:102790004C0000206002002008B500200090FEF7E9
:1027A000A3FD0F4803F059FE13E069460C4803F0FF
:1027B00060FEFEF7AFFD00980830FFF74DFFFEF713
:1027C00093FD07480099083803F03BFE044803F0E6
:1027D00044FE0028E9D0FFF7A3FFFEF79BFD08BDEC
:1027E0005400002010B5024803F037FE10BD000071
:1027F00054000020014608310A78042A01D0012043
:1028000070478030007A8978C01E814201D0022052
:1028100070470020704738B504466B4601222021DE
:10282000204600F097FA002801D0012038BD694603
:1028300008788021084300906B4601222021204621
:1028400000F02BFC002801D0012038BD002038BD4D
:1028500038B50446002000906946204600F0A6F9ED
:10286000012806D0694620780978884203D00120E3
:1028700038BD012038BD002038BD38B504466B4650
:1028800001222021204600F065FA002801D0012015
:1028900038BD694608784006400E00906B4601221C
:1028A0002021204600F0F9FB002801D0012038BD8E
:1028B000002038BD38B50C4615466B46012227214D
:1028C00000F048FA002801D0012038BD68460078A1
:1028D0008007C00F207068460078C007C00F2870BE
:1028E000002038BD10B50B4601220F2100F032FA4E
:1028F000002801D0012010BD002010BD38B50C46C5
:1029000000210091694600F011F8012809D06846BD
:102910000088FDF7DEFD0449FDF7E0FC20600020A3
:1029200038BD012038BD000000002041F3B583B060
:10293000074601AB02223021384600F00BFA00288E
:1029400002D0012005B0F0BD684600794508684610
:1029500040794008029001AB02223621384600F04F
:10296000F9F9002801D00120ECE769464879097996
:102970000002084304B201AB02223A21384600F0BB
:10298000E9F9002801D00120DCE769464879097996
:102990000002084306B201AB02222821384600F0AB
:1029A000D9F9002801D00120CCE769464879097996
:1029B0000002084307B22846FDF780FD0090301B57
:1029C000FDF77CFD06460298401BFDF777FD0546A6
:1029D000381BFDF773FD2946FDF743FC3146FDF733
:1029E0007DFC0099FDF7E4FB0A49FDF73AFC0A4932
:1029F000884202DD7D20C00008E0FF21C905C842F1
:102A000001D3002002E0FDF784FD80B20499088024
:102A1000002097E70000204100007A4438B50C46BA
:102A2000694600F027F801280DD068460078002894
:102A30000BD001280CD002280ED003280FD00A4852
:102A40002060012038BD012038BD0020206008E052
:102A50007F20C005206004E00448206001E00448B5
:102A60002060002038BD0000000080BF0000E04072
:102A70000000484138B50C466B460122202100F089
:102A800069F9002801D0012038BD6946087880071F
:102A9000800F00902070002038BD000038B50C4633
:102AA00000210091694600F011F801280AD069461A
:102AB0000020085EFDF702FD0349FDF70FFC2060D2
:102AC000002038BD012038BD00002041F3B585B09D
:102AD00003AB02223221059800F03CF9002802D015
:102AE000012007B0F0BD02AB01223521059800F0AE
:102AF00031F9002801D00120F3E76A46107A127BF1
:102B00008107890D11430C2210406A46527B8001D7
:102B10001043CD10C71003AB04223C21059800F0F0
:102B200019F9002801D00120DBE76946487B097BC1
:102B30000002084304B26946C87B897B000208434F
:102B400006B203AB02222A21059800F003F90028FF
:102B500001D00120C5E76946487B097B0002084394
:102B600000B204902846FDF7A9FC0190301BFDF748
:102B7000A5FC0646781BFDF7A1FC05460498001B42
:102B8000FDF79CFC2946FDF76CFB3146FDF7A6FBE3
:102B90000199FDF70DFB0449FDF763FBFDF7A0FC70
:102BA0000699088000209CE70000204110B5FFF73F
:102BB00099FE012801D0002010BD012010BD10B5E4
:102BC000FFF746FE10BD10B50446A0680068006817
:102BD0004078002804D1204600F050F8012806D0A3
:102BE000A1680020096809680870E07010BD012024
:102BF00010BD1CB50C466A4601A9FFF75BFE012813
:102C000007D068460079002808D0012803D00120A9
:102C10001CBD01201CBD0120207001E0002020709F
:102C200000201CBD10B5FFF769FE10BD10B5FFF701
:102C3000F5FE10BD10B5FFF7B9FF10BD10B5044685
:102C4000A068006800684078002804D1204600F0A1
:102C50005FF8012807D0A168012009680968087099
:102C6000E070002010BD012010BD10B500F082F80A
:102C7000012801D0002010BD012010BD10B5044670
:102C80002079002806D0A06800680068C078002875
:102C900002D006E0002010BD204600F076F80128A2
:102CA00006D0A1680020096809688870207110BDED
:102CB000012010BD10B504462079012806D0A06877
:102CC00000680068C078002802D006E0002010BD2F
:102CD000204600F063F8012807D0A16801200968A8
:102CE000096888702071002010BD012010BD10B54A
:102CF00000F0A8F810BD10B500F0C0F810BD10B578
:102D000000F0DBF9012801D0002010BD012010BD2A
:102D100010B504462046FFF79BFD012812D020463F
:102D2000FFF7ABFD01280FD00121204600F040F84D
:102D300001280BD00021204600F084F8012807D09C
:102D4000002010BD012010BD012010BD012010BDCC
:102D5000012010BD10B51C46012A01D9802319435A
:102D60001346224602F098FC002801D0012010BD35
:102D7000002010BD10B513460122FFF7EBFF01281C
:102D800001D0002010BD012010BD10B5FFF775FD6A
:102D9000012801D0002010BD012010BD10B5FFF7A3
:102DA0003AFD012801D0002010BD012010BD000017
:102DB00038B505460C46012C05D0002C03D010492F
:102DC00010A000F085F96B46012220212846FFF76C
:102DD000C1FF002801D0012038BD69460978FB20D9
:102DE0000140A000084300906B46012220212846A4
:102DF00000F053F9002801D0012038BD002038BD73
:102E0000630200002E2E5C2E2E5C2E2E5C2E2E5C7D
:102E10002E2E5C2E2E5C447269766572735C425372
:102E2000505C436F6D706F6E656E74735C68747325
:102E30003232315C4854533232315F4472697665C4
:102E4000722E630010B50B0002F02DFD050406087C
:102E50000A0C1300012106E0032104E0032102E033
:102E6000032100E0032100F021F8012803D0002015
:102E700010BD012010BD012010BD000010B57F2243
:102E8000D205914201DC012105E0074A914201DCB3
:102E9000022100E0032100F009F8012801D0002000
:102EA00010BD012010BD00000000E04038B505460F
:102EB0000C46002C09D0012C07D0022C05D0032C85
:102EC00003D0104910A000F003F96B460122202125
:102ED0002846FFF73FFF002801D0012038BD684693
:102EE000007881088900214300916B46012220214E
:102EF000284600F0D2F8002801D0012038BD00207B
:102F000038BD0000BA0200002E2E5C2E2E5C2E2E44
:102F10005C2E2E5C2E2E5C2E2E5C447269766572C1
:102F2000735C4253505C436F6D706F6E656E74736B
:102F30005C6874733232315C4854533232315F44CE
:102F400072697665722E630010B5FFF781FC10BDC3
:102F500010B50446A068006800680078002804D115
:102F6000204600F050F8012806D0A168002009682A
:102F700009684870E07010BD012010BD1CB50C46FA
:102F80006A4601A9FFF796FC012807D06846007839
:102F9000002808D0012803D001201CBD01201CBD41
:102FA0000120207001E00020207000201CBD10B521
:102FB000FFF734FD10BD10B5FFF770FD10BD10B563
:102FC000FFF7F4FD10BD10B50446A0680068006866
:102FD0000078002804D12046FFF79AFE012807D088
:102FE000A1680120096809684870E070002010BDE0
:102FF000012010BD10B5FFF7BDFE012801D0002053
:1030000010BD012010BD10B504462079002806D05F
:10301000A068006800688078002802D006E00020E0
:1030200010BD2046FFF7B1FE012806D0A1680020A0
:1030300009680968C870207110BD012010BD10B565
:1030400004462079012806D0A068006800688078CE
:10305000002802D006E0002010BD2046FFF79EFEAB
:10306000012807D0A168012009680968C87020718B
:10307000002010BD012010BD10B5FFF7E3FE10BD0C
:1030800010B5FFF7FBFE10BD10B500F016F80128D3
:1030900001D0002010BD012010BD10B51C46012A32
:1030A00001D9802319431346224602F0FFFA002873
:1030B00001D0012010BD002010BD07B502AB0122D8
:1030C000FFF7EBFF012801D000200EBD01200EBD4F
:1030D0000A46014601A002F0BFFBFEE757726F6E81
:1030E0006720706172616D65746572732076616CC2
:1030F00075653A2066696C65202573206F6E206CBB
:10310000696E652025640D0A00000000FEB50646C4
:103110000F4615461C460C480A210068FCF7E8FFDC
:10312000014601A802F07CFBE4B2EBB23A4631461C
:1031300006480094FEF77EF8002804D001A802F0AB
:1031400061FB0028F1D0FEBD4C6900086002002040
:10315000FEE7000001B582B002A8009006480223F5
:10316000C1890022408902F003FF002801D04720D6
:103170000EBD00200EBD00000C0000207CB50446F2
:10318000002001900E4D01A9E869FDF7EFFD002830
:1031900014D168460079012810D16946E869FDF725
:1031A000BBFD08490098FDF75CF8FDF7EBF900223C
:1031B000054BFDF7D1F8FDF7C1F920807CBD00007B
:1031C0000C000020000020410000E03F10B5064840
:1031D000816B012252059143816303210902034857
:1031E000FEF7C0F810BD00000010024000040050BF
:1031F00000B585B00320000200901220019001204C
:103200000290032003900420049069460548FEF7CD
:1032100029F90548816B012252051143816305B0EC
:1032200000BD0000000400500010024010B503482B
:10323000FEF73BFA00F004F810BD00007405002012
:1032400010B50E48FEF748FA00280DD10B480C497E
:103250004160332181600121C1600A49016000F0B1
:1032600013F80648FEF73CFA0448FEF735FA012841
:1032700001D0012010BD002010BD00007405002009
:103280002E11B1000054004010B586B0154CE16A13
:1032900002200143E162E16A014000910321090239
:1032A00001911221029104900020039004200590C6
:1032B00001A90D48FEF7D6F8A16B01204005014396
:1032C000A163A16A0143A162A16A8143A1620022B4
:1032D00011461720FEF7ECFB1720FEF7DFFB06B0C8
:1032E00010BD000000100240000400503EB504462E
:1032F000094800680092019302900A460123214682
:103300000648FEF745FA002804D02046FFF78EFF56
:1033100001203EBD00203EBD5C0000207405002061
:103320003EB50446094800680092019302900A469F
:10333000012321460648FEF7D1FA002804D0204692
:10334000FFF774FF01203EBD00203EBD5C00002061
:1033500074050020F8B504460E46FEF73DF9074611
:1033600020688169C943C90641D425462035697D55
:10337000122905D0697D522902D0697D622917D1B1
:103380004168890114D441680122920311434160CC
:103390000EE0701C0CD0002E04D0FEF71DF9C01BEF
:1033A000B04205D901206875002028750320F8BDBA
:1033B00020688069C0438006EBD421681020C86172
:1033C00021682020C86120688169C943C90701D0EC
:1033D0000121C16120684168064A11404160042012
:1033E000A06301206875002028750120F8BD002029
:1033F000F8BD000000E800FEF8B5069F044616463A
:103400001D46012040030090EAB20023204600F050
:1034100071F83946204600F0E3F8002806D0A06B8A
:10342000042801D00320F8BD0120F8BD2846F5B2DC
:1034300001280DD02168300A88623946204600F004
:10344000CFF8002809D0A06B042804D00320F8BDD1
:103450002068856203E00120F8BD206885623B4654
:1034600000224021204600F057F8002801D0032018
:10347000F8BD0020F8BDF8B5069F044616461D4667
:1034800001204003C3020090EAB2204600F032F867
:103490003946204600F0A4F8002806D0A06B042886
:1034A00001D00320F8BD0120F8BD2846F5B201285F
:1034B0000DD02168300A88623946204600F090F825
:1034C000002809D0A06B042804D00320F8BD206890
:1034D000856203E00120F8BD206885623B4600223A
:1034E0008021204600F018F8002801D00320F8BD04
:1034F0000020F8BD70B5049D00684468054E344056
:103500008905890D12041143194329432143416060
:1035100070BD0000009800FCFFB581B0064615465E
:103520001C46FEF759F8074629463546203500293E
:1035300010D025E0601C0DD0002C04D0FEF74CF814
:10354000C01BA04206D90120687500202875032001
:1035500005B0F0BD3068816902988843C003E9D1A5
:1035600014E0601C0CD0002C04D0FEF735F8C01B12
:10357000A04205D901206875002028750320E7E7DF
:103580003068816902988843C003EAD00020DFE7F1
:1035900070B504460D46FEF71FF8064619E02946A9
:1035A0002046FFF7D7FE002801D0012070BD002D76
:1035B00004D0FEF711F8801BA8420AD9A06B202185
:1035C0000843A0630120203460750020207503208B
:1035D00070BD20688069C0438006E0D4002070BDC3
:1035E00070B505460C46FDF7F7FF06461BE0214681
:1035F0002846FFF7AFFE002801D0012070BD601CF7
:1036000011D0002C04D0FDF7E7FF801BA0420AD99F
:10361000A86B20210843A86301202035687500208D
:103620002875032070BD28688069C0438007DED4F8
:10363000002070BD10B50122D243002801D01046F1
:1036400010BD0D4803680846984301D0104610BDD0
:10365000094A8900121D51580848890040580168DC
:1036600010460C3800688847002802D00420C04368
:1036700010BD002010BD0000A40100206406002041
:1036800010B50123DB43002801D0184610BD0D48BA
:1036900004680846A04301D0184610BD094B8900B4
:1036A0001B1D59580848890040581146C3690548F0
:1036B000083800689847002802D00420C04310BD95
:1036C000002010BDA401002064060020F3B589B0DD
:1036D00007460020079001240025002F07D0801EF8
:1036E00007900798002828D007980BB0F0BD0A98DB
:1036F00001F0B0F9002802D00020C043F5E72149CD
:103700002048091D09680068CA6869469047002872
:1037100002D00620C043E8E768460078012800D1BF
:10372000022568464078012800D105436846807824
:103730000128D6D104200543D3E7002638460C21C2
:10374000484311494018BF0008900A982146814318
:1037500012D12046A8430FD10A49A2000C31895842
:1037600008988900405801680648C05988470028D1
:1037700002D00420C043B8E76400761C032EE4D3D3
:103780000798B2E79C0100206406002038B5044683
:10379000002000906946204600F04EFA012806D02D
:1037A000694620780978884203D0012038BD01207D
:1037B00038BD002038BD70B505461446284600F0D7
:1037C000B5F9012807D02146284600F009FA01285A
:1037D00003D0002070BD012070BD012070BD1CB55C
:1037E0000C46694600F01FF9012804D0684640786D
:1037F000207000201CBD01201CBD1CB50C46694674
:1038000000F011F9012804D06846007920700020EA
:103810001CBD01201CBD1CB50C46694600F003F917
:10382000012804D068468078207000201CBD01204B
:103830001CBD38B50C46694600F0E2F8012804D0FA
:10384000684600782070002038BD012038BD1CB5C6
:103850000C46694600F0E7F8012804D06846007875
:10386000207000201CBD01201CBD1CB50C46694603
:1038700000F0D9F8012804D06846C07820700020F4
:103880001CBD01201CBD10B500F0F0F8012801D0CE
:10389000002010BD012010BD10B5002905D0012960
:1038A00009D002290DD0012010BD002100F097FAA7
:1038B00001280BD110BD002100F0B1FA012805D17B
:1038C00010BD002100F0CBFA012801D0002010BD6E
:1038D000012010BD10B5002905D0012909D0022909
:1038E0000DD0012010BD012100F079FA01280BD183
:1038F00010BD012100F093FA012805D110BD01216E
:1039000000F0ADFA012801D0002010BD012010BD4B
:1039100010B560290DD006DC00290AD0202908D076
:10392000402904D105E0802903D0E02901D00120FD
:1039300010BD00F0B4FA012801D0002010BD012014
:1039400010BD10B500F0EAFA012801D0002010BD2A
:10395000012010BD10B5002903D0012901D001209C
:1039600010BD00F0FAFA012801D0002010BD01209E
:1039700010BD10B5002903D0012901D0012010BDD0
:1039800000F0ACFA012801D0002010BD012010BDCC
:1039900010B5002903D0012901D0012010BD00F08D
:1039A000DCFA012801D0002010BD012010BD38B57F
:1039B0000C466B460122272100F088F9002801D02F
:1039C000012038BD68460078C107C90F6170022127
:1039D00008402070684600788106C90FA170C006B3
:1039E000C00FE070002038BD10B50B4601220F213A
:1039F00000F06CF9002801D0012010BD002010BD9E
:103A000038B50C466B460122142100F05FF90028FE
:103A100001D0012038BD6946087840094001009076
:103A20002070002038BD38B50C466B460122262197
:103A300000F04CF9002801D0012038BD684600781C
:103A4000C10921714106C90FE1708006800E207006
:103A500001210022002805D06270202804D0A27025
:103A6000002038BD6170F8E7A170F9E710B50C4689
:103A700023460122142100F029F9002801D0012059
:103A800010BD2078C006C00E2070002010BD0000C0
:103A900038B50C46694600F037F801280BD0684667
:103AA000007830281BD008DC00280ED010280FD05A
:103AB000202806D110E0012038BD402812D050281F
:103AC00013D00C482060012038BD002020600EE09B
:103AD0007F20C00520600AE00748206007E0074813
:103AE000206004E00648206001E0064820600020D5
:103AF00038BD0000000080BF000020410000C84128
:103B0000000048420000964238B50C466B46012240
:103B1000102100F0DBF8002801D0012038BD6846F4
:103B20000078702108402070002038BD38B50C4660
:103B300000210091694600F00FF8012808D0009894
:103B4000FCF7BCFC0349FCF7C9FB2060002038BD32
:103B5000012038BD0000C84238B50C46694600F067
:103B60000EF8002801D0012038BD00986421484398
:103B7000C117090D081800132060002038BD38B5A2
:103B80000D4600246B460322282100F09FF80028F0
:103B900001D0012038BD002069460A5CC3009A406C
:103BA0001443401CC0B20328F7D3200202D5FF20E3
:103BB000000604432C60002038BD38B50C466B4627
:103BC00002222B2100F082F8002801D0012038BD0C
:103BD000694648780978000240182080002038BDE6
:103BE00038B50C4600210091694600F011F8012813
:103BF0000AD069460020085EFCF760FC0349FCF728
:103C00006DFB2060002038BD012038BD0000204140
:103C100038B50C466946FFF7D0FF002801D00120D7
:103C200038BD69460020085E0A2148436421FCF73C
:103C300075FA2080002038BD10B5FFF7D5FE0128A9
:103C400001D0002010BD012010BD000070B5054658
:103C50000C462846FFF79AFD012827D01A486060D5
:103C60000121284600F08BFA012821D000212846A6
:103C700000F066FA01281DD00021284600F08DF9D9
:103C8000012819D00021284600F0A7F9012815D0F5
:103C90000221284600F084F8012811D0002128468E
:103CA00000F05EF801280DD0002070BD012070BD2D
:103CB000012070BD012070BD012070BD012070BDCC
:103CC000012070BD012070BD0000C841FFB581B06A
:103CD0000D4616461F4600240CE02819C1B23A19B9
:103CE0000123019801F0D8FC002802D0012005B082
:103CF000F0BD641CB442F0DB0020F8E710B51346B9
:103D00000122FFF7E3FF012801D0002010BD0120B0
:103D100010BD000000B587B00F48C16A01221143F1
:103D2000C162C06A10400190102002900B480390BD
:103D30000220059000200490052002A90007FDF74D
:103D400091FB002211460720FDF7B2FE0720FDF788
:103D5000A5FE002007B000BD0010024000001110B9
:103D600038B504460D466B46012211212046FFF767
:103D7000ADFF002801D0012038BD69460A78EF2048
:103D800002402801104300906B4601221121204679
:103D900000F0CAFA002801D0012038BD002038BD4B
:103DA00038B505460C466B46012210212846FFF720
:103DB0008DFF002801D0012038BD68460278FD2023
:103DC0000240224300926B4601221021284600F057
:103DD000ABFA002801D0002038BD002038BD38B52E
:103DE00004460D466B46012212212046FFF76EFF66
:103DF000002801D0012038BD69460A78EF20024032
:103E00002801104300906B4601221221204600F049
:103E10008BFA002801D0012038BD002038BD38B50C
:103E200004460D466B46012212212046FFF74EFF45
:103E3000002801D0012038BD69460A78DF20024001
:103E40006801104300906B4601221221204600F0C9
:103E50006BFA002801D0012038BD002038BD38B5EC
:103E600004460D466B46012212212046FFF72EFF25
:103E7000002801D0012038BD69460A78F7200240A9
:103E8000E800104300906B4601221221204600F00A
:103E90004BFA002801D0012038BD002038BD38B5CC
:103EA00005460C466B46012214212846FFF70EFFFB
:103EB000002801D0012038BD68460078C206D20E25
:103EC000224300926B4601221421284600F02CFA6E
:103ED000002801D0012038BD002038BD38B5044687
:103EE0000D466B46012211212046FFF7EFFE002808
:103EF00001D0012038BD69460A78BF200240A801E0
:103F0000104300906B4601221121204600F00CFA6C
:103F1000002801D0012038BD002038BD38B5054645
:103F20000C466B46012214212846FFF7CFFE0028DD
:103F300001D0012038BD6846007842095201224371
:103F400000926B4601221421284600F0EDF900286A
:103F500001D0012038BD002038BD38B504460D46DB
:103F60006B46012211212046FFF7B0FE002801D048
:103F7000012038BD69460A78DF20024068011043FD
:103F800000906B4601221121204600F0CDF9002857
:103F900001D0012038BD002038BD38B504460D469B
:103FA0006B46012210212046FFF790FE002801D029
:103FB000012038BD69460A78F7200240E800104326
:103FC00000906B4601221021204600F0ADF9002838
:103FD00001D0012038BD002038BD38B505460C465B
:103FE0006B46012210212846FFF770FE002801D001
:103FF000012038BD68460278FB200240224300922F
:104000006B4601221021284600F08EF9002801D0CD
:10401000012038BD002038BD7F20C005814209DD68
:104020000648814206DD0648814203DD054881429B
:1040300000DD05485060002070470000000020416E
:104040000000C841000048420000964270B5054695
:1040500014467F20C005814201DC10210FE010488A
:10406000814201DC20210AE00E48814201DC30213E
:1040700005E00D48814201DC402100E05021284646
:1040800000F05EF8012807D0211D2846FFF700FD4B
:10409000012803D0002070BD012070BD012070BD3B
:1040A000000020410000C8410000484200B50B005C
:1040B00001F0F9FB0504080B0E1115007F20C00567
:1040C00050600AE00748506007E00748506004E08D
:1040D0000648506001E006485060002000BD012005
:1040E00000BD0000000020410000C841000048421F
:1040F0000000964270B5054614460B0001F0D3FB54
:10410000050406080A0C1A00102106E0202104E02C
:10411000302102E0402100E05021284600F010F854
:10412000012809D0211D2846FFF7B2FC012805D03F
:10413000002070BD012070BD012070BD012070BD48
:1041400038B505460C466B46012210212846FFF77C
:10415000BDFD002801D0012038BD684602788F20BF
:104160000240224300926B4601221021284600F0B3
:10417000DBF8002801D0012038BD002038BD38B55B
:1041800005460C466B4601221A212846FFF79EFD84
:10419000002801D0012038BD68460078420852004E
:1041A000224300926B4601221A21284600F0BCF8F7
:1041B000002801D0012038BD002038BD10B5FFF720
:1041C000E5FA10BD70B50546A86800680468207857
:1041D000002804D1284600F040F8012803D0002030
:1041E0006070E87070BD012070BD38B50C4669463E
:1041F000FFF7DDFB012804D068460078207000201E
:1042000038BD012038BD10B5FFF742FC10BD10B518
:10421000FFF7E6FC10BD10B5FFF70EFD10BD70B541
:104220000546A868006804682078002805D1214662
:104230002846FFF70BFD012804D001206070E870CC
:10424000002070BD012070BD10B5FFF757FD01289B
:1042500001D0002010BD012010BD70B50446A0683B
:10426000006805682079002803D0A878002802D0CB
:1042700007E0002070BD00212046FFF761FF012804
:1042800003D00020E870207170BD012070BD70B5B2
:104290000446A06800680568207901280BD02A46EA
:1042A00020466968FFF7D2FE012806D00120E87099
:1042B0002071002070BD002070BD012070BD10B5C0
:1042C0008268126812680379012B04D0FFF7EEFEB2
:1042D000012808D003E0FFF70DFF012801D00020DE
:1042E00010BD012010BD012010BD10B582681268FC
:1042F00012680379012B04D0FFF78EFE012808D045
:1043000003E0FFF7A3FE012801D0002010BD01202B
:1043100010BD012010BD10B500F01EF8012801D01D
:10432000002010BD012010BDFFB581B00D4616461E
:104330001F4600240CE02819C1B23A190123019844
:1043400001F0B4F9002802D0012005B0F0BD641CD2
:10435000B442F0DB0020F8E707B502AB0122FFF71B
:10436000E3FF012801D000200EBD01200EBD10B5D5
:10437000012100F043FA002801D0012010BD0020E7
:1043800010BD38B50446002000906946204600F074
:10439000C7F8012806D0694620780978884203D0FA
:1043A000012038BD012038BD002038BD10B50021E6
:1043B00000F024FA002801D0012010BD002010BD1B
:1043C00038B50C466B460122272100F0EDF8002895
:1043D00001D0012038BD68460078C007C00F2070AA
:1043E000684600788107C90F6170C106C90FA170C6
:1043F0008006C00FE070002038BD10B50B460122CA
:104400000F2100F0D1F8002801D0012010BD0020BC
:1044100010BD000038B50C46694600F02FF80128A1
:1044200009D068460078202816D006DC00280CD079
:10443000102806D10CE0012038BD30280FD04028CC
:1044400010D00A482060012038BD002020600BE019
:104450007F20C005206007E00548206004E0054893
:10446000206001E004482060002038BD000080BFCB
:104470000000E040000048410000C84138B50C464B
:104480006B460122202100F08FF8002801D0012086
:1044900038BD68460078702108402070002038BD83
:1044A00038B50C466B4602222B2100F07DF800281F
:1044B00001D0012038BD69464878097800024018CB
:1044C0002080002038BD000038B50C460021009146
:1044D000694600F011F801280AD069460020085EFC
:1044E000FBF7ECFF0349FBF7F9FE2060002038BD25
:1044F000012038BD0000204138B50C466946FFF761
:10450000CFFF002801D0012038BD6A4600203021AD
:10451000105EFBF703FEFF30AA302080002038BD7C
:1045200010B5FFF76AFF012801D0002010BD01205F
:1045300010BD10B504462046FFF723FF012825D003
:104540002046FFF733FF012822D00021204600F04B
:10455000EBF801281ED00121204600F0B9F801280F
:104560001AD00421204600F089F8012816D0012134
:10457000204600F06FF9012812D0042201212046C4
:1045800000F040F801280DD0002010BD012010BD22
:10459000012010BD012010BD012010BD012010BD63
:1045A000012010BD012010BD10B51C46012A01D903
:1045B000802319431346224601F06EF8002801D0EB
:1045C000012010BD002010BD10B513460122FFF7D9
:1045D000EBFF012801D0002010BD012010BD10B557
:1045E000FFF7E4FE012801D0002010BD012010BD1E
:1045F00010B5FFF7BCFE012801D0002010BD01203E
:1046000010BD0000F8B506460D461446002C09D032
:10461000042C07D0082C05D00C2C03D0A52116485B
:1046200000F0FCF9002D09D0012D07D0022D05D096
:10463000032D03D0A621104800F0F0F96B460122AB
:1046400010213046FFF7B0FF002801D00120F8BD4F
:1046500068460078010909012943214300916B460E
:1046600001221021304600F0BDF9002801D00120C0
:10467000F8BD0020F8BD00008069000838B5054687
:104680000C46002C06D0042C04D0FF2177310F48B3
:1046900000F0C4F96B46012220212846FFF784FF71
:1046A000002801D0012038BD68460178FB20014078
:1046B000214300916B4601222021284600F092F907
:1046C000002801D0012038BD002038BD80690008D5
:1046D00038B505460C46012C06D0002C04D0FF212D
:1046E000A131104800F09AF96B460122202128469A
:1046F000FFF75AFF002801D0012038BD694609782C
:10470000F7200140E000084300906B460122202181
:10471000284600F067F9002801D0012038BD0020AC
:1047200038BD00008069000810B50B0001F0BBF82F
:10473000050406080A0C1300102106E0302104E0ED
:10474000402102E0402100E0402100F027F801284C
:1047500003D0002010BD012010BD012010BD0000BD
:1047600010B57F22D205914201DC10210AE0094AEE
:10477000914201DC202105E0074A914201DC302111
:1047800000E0402100F00AF8012801D0002010BD0F
:10479000012010BD0000E0400000484138B505464A
:1047A0000C46002C0CD0102C0AD0202C08D0302C19
:1047B00006D0402C04D0FF2131310F4800F02EF9F3
:1047C0006B46012220212846FFF7EEFE002801D08B
:1047D000012038BD684601788F20014021430091B7
:1047E0006B4601222021284600F0FCF8002801D069
:1047F000012038BD002038BD8069000838B5054665
:104800000C46002C06D0012C04D0FF215C3110484E
:1048100000F004F96B46012220212846FFF7C4FE70
:10482000002801D0012038BD694608784106490EAC
:10483000E001084300906B4601222021284600F049
:10484000D1F8002801D0012038BD002038BD00007B
:104850008069000838B505460C46002C06D0012CAE
:1048600004D0FF21E3310F4800F0D8F86B46012255
:1048700020212846FFF798FE002801D0012038BDEE
:104880006846007841084900214300916B460122A7
:104890002021284600F0A6F8002801D0012038BDCC
:1048A000002038BD8069000810B5FFF76AFD10BD13
:1048B00010B50446A068006800680078002804D19C
:1048C000204600F045F8012806D0A16800200968BC
:1048D00009684870E07010BD012010BD38B50C4665
:1048E0006946FFF76DFD012804D068460078207006
:1048F000002038BD012038BD10B5FFF78BFD10BD7D
:1049000010B5FFF7E1FD10BD10B5FFF709FE10BDB2
:1049100010B50446A068006800680078002804D13B
:104920002046FFF706FE012807D0A168012009688C
:1049300009684870E070002010BD012010BD10B55E
:10494000FFF742FE012801D0002010BD012010BD5C
:1049500010B504462079002806D0A06800680068D9
:104960008078002802D006E0002010BD2046FFF726
:1049700036FE012806D0A168002009680968C870C1
:10498000207110BD012010BD10B50446207901280A
:1049900006D0A068006800688078002802D006E091
:1049A000002010BD2046FFF723FE012807D0A16894
:1049B000012009680968C8702071002010BD01201D
:1049C00010BD10B5FFF7B0FE10BD10B5FFF7C8FE63
:1049D00010BD10B500F016F8012801D0002010BD60
:1049E000012010BD10B51C46012A01D980231943AE
:1049F0001346224600F05AFE002801D0012010BDC7
:104A0000002010BD07B502AB0122FFF7EBFF012824
:104A100001D000200EBD01200EBD00000A46014657
:104A200001A000F019FFFEE757726F6E67207061FA
:104A300072616D657465727320746D703A20666979
:104A40006C65202573206F6E206C696E652025646F
:104A50000D0A0000F0B58FB00546002400200A9032
:104A6000D72008A908733148089031480990314887
:104A70000D9031480C9031480E90314800F0C0FC48
:104A8000E61F002801D034464DE007A92C4800F06D
:104A9000ABFC002801D0344645E06846007F6A2818
:104AA00001D034463FE06946254800F043FC6846A3
:104AB0000078244A410068468078800001436846B7
:104AC0004078014311601E49083A11601D4B1E4A8F
:104AD0001B1F1A601D4E1E4FEB070CD001280AD178
:104AE00073681C489B00F8501268084690470028DD
:104AF00001D00424E443A80715D5684600780128AE
:104B000011D1B1681448890078500E480D49083811
:104B1000091F0968006809688847002802D0042432
:104B2000E44300E0002420460FB0F0BDC90D0008AA
:104B3000A90D0008110E00083D0E0008050C000824
:104B400034060020A4010020BC010020A8010020A0
:104B500064060020F0010020CC01002070B5014661
:104B600020310C46497A00290BD001461C302B31EC
:104B7000064601F0AEFD0025ED43002803D028468F
:104B800070BD002070BD0021304601F0DDFD002821
:104B900001D0284670BD0020607270BD10B504467B
:104BA0002034617A012908D0E17A1C3001F0CCFD73
:104BB000002804D00020C04310BD002010BD0120FB
:104BC0006072002010BDFEB506460C460020009025
:104BD000304601A91C3001F07BFC0025ED43002884
:104BE00001D02846FEBD6946304600F0B9F80028DD
:104BF00001D02846FEBD69460420085EFBF75EFC36
:104C00000099FBF72EFBFBF76BFC20606946062042
:104C1000085EFBF753FC00990D46FBF722FBFBF700
:104C20005FFC606069460820085EFBF747FC294688
:104C3000FBF717FBFBF754FCA0600020FEBD1CB582
:104C40000C4669461C3001F043FC002802D00020CD
:104C5000C0431CBD6846008820806846408860804C
:104C600068468088A08000201CBD38B50C46002511
:104C700069461C3001F081FD691E002801D00846FC
:104C800038BD68460278002A08D0012A0FD0022ACF
:104C900007D0032A08D00D46284638BD02202060E0
:104CA000FAE704202060F7E708202060F4E71020EE
:104CB0002060F1E738B50C46002569461C3001F04C
:104CC00008FD691E002801D0084638BD68460078F6
:104CD000030000F0E8FD0C070D101316191C1F222D
:104CE00025280A2B0020206021E0124820601EE0C9
:104CF000114820601BE01148206018E01048206037
:104D000015E01048206012E00F4820600FE00F48C7
:104D100020600CE00E48206009E00E48206006E0AC
:104D20000D48206003E00D48206000E00D46284655
:104D300038BD0000CDCCCC3F000048410000D04140
:104D4000000050420000D042000050430000D04319
:104D5000004050440080CF44002050450020D04502
:104D600038B50C46002569461C3001F006FD691E69
:104D7000002801D0084638BD68460278002A08D0CD
:104D8000012A0FD0022A07D0032A08D00D46284650
:104D900038BD06482060FAE705482060F7E7054877
:104DA0002060F4E704482060F1E7000023DB793D50
:104DB00023DBF93D23DB793E23DBF93E10B50229E5
:104DC00001DC002108E0042901DC022104E00829BB
:104DD00001DC032100E001211C3001F0EFFC002880
:104DE00002D00020C04310BD002010BD10B5292204
:104DF000125C012A02D000F005F810BD00F046F860
:104E000010BD0000184A914201DC012128E0174A38
:104E1000914201DC022123E0154A914201DC032189
:104E20001EE0144A914201DC042119E0124A914229
:104E300001DC052114E0114A914201DC06210FE05A
:104E40000F4A914201DC07210AE00E4A914201DC3F
:104E5000082105E00C4A914201DC092100E00A2109
:104E60002030C17200207047000048410000D0414E
:104E7000000050420000D042000050430000D043E8
:104E8000004050440080CF440020504510B51C4ADB
:104E9000914201DC012128E01A4A914201DC022101
:104EA00023E0194A914201DC03211EE0174A914296
:104EB00001DC042119E0164A914201DC052114E0CD
:104EC000144A914201DC06210FE0134A914201DCB1
:104ED00007210AE0114A914201DC082105E0104A4D
:104EE000914201DC092100E00A211C3001F02CFC78
:104EF000002802D00020C04310BD002010BD0000DB
:104F0000000048410000D041000050420000D04263
:104F1000000050430000D043004050440080CF4484
:104F20000020504570B504462046FFF717FE0025C7
:104F3000ED43002801D0284670BD204600F00BF854
:104F4000002801D0284670BD00212034E172217371
:104F50002172002070BD70B5014620310C46897A5F
:104F600000290BD001461C302C31064601F013FB02
:104F70000025ED43002803D0284670BD002070BDF9
:104F80000021304601F03FFB002801D0284670BDCB
:104F90000020A07270BD10B504462034A17A01290A
:104FA00008D0217B1C3001F02EFB002804D000200B
:104FB000C04310BD002010BD0120A072002010BD14
:104FC000FEB506460C46304601A91C3001F087FAB2
:104FD0000025ED43002801D02846FEBD6946304635
:104FE00000F0BAF8002801D02846FEBD694604202A
:104FF000085EFBF763FA0099FBF733F9FBF770FAE9
:10500000206069460620085EFBF758FA00990D46B5
:10501000FBF727F9FBF764FA606069460820085E31
:10502000FBF74CFA2946FBF71CF9FBF759FAA0608D
:105030000020FEBD1CB50C4669461C3001F04FFA3D
:10504000002802D00020C0431CBD68460088208094
:1050500068464088608068468088A08000201CBD2B
:1050600038B50C46002569461C3001F0E5FA691E8A
:10507000002801D0084638BD68460078030000F0DB
:1050800012FC0708050B170F171317007D2020606F
:105090000FE0FA2020600CE0FF20F530206008E0EF
:1050A0007D20C000206004E07D200001206000E041
:1050B0000D46284638BD000038B50C460025694627
:1050C0001C3001F068FA691E002801D0084638BD7E
:1050D00068460078030000F0E6FB0B070A0D10138A
:1050E00016191C1F22252800002020601EE01048F1
:1050F00020601BE00F48206018E00F48206015E09A
:105100000E48206012E00E4820600FE00D4820603D
:105110000CE00D48206009E00C48206006E00C48D7
:10512000206003E00B48206000E00D46284638BDB3
:10513000000048410000D041000050420000D04231
:10514000000050430000D043004050440080CF4452
:10515000002050450020D04538B50C460025694652
:105160001C3001F069FA691E002801D0084638BDDC
:1051700068460078030000F096FB0708050B140E44
:1051800014111400084820600CE00848206009E071
:105190000748206006E00748206003E006482060DA
:1051A00000E00D46284638BD00008C4000000C4150
:1051B00000008C4100000C4200008C4210B57D299B
:1051C00001DC012110E0FA2901DC00210CE0FF22C2
:1051D000F532914201DC022106E07D22D2009142AB
:1051E00001DC042100E006211C3001F04AFA00280D
:1051F00002D00020C04310BD002010BD10B52A22EF
:10520000125C012A02D000F005F810BD00F046F84B
:1052100010BD0000184A914201DC012128E0174A24
:10522000914201DC022123E0154A914201DC032175
:105230001EE0144A914201DC042119E0124A914215
:1052400001DC052114E0114A914201DC06210FE046
:105250000F4A914201DC07210AE00E4A914201DC2B
:10526000082105E00C4A914201DC092100E00A21F5
:105270002030017300207047000048410000D041F9
:10528000000050420000D042000050430000D043D4
:10529000004050440080CF440020504510B51C4AC7
:1052A000914201DC012128E01A4A914201DC0221ED
:1052B00023E0194A914201DC03211EE0174A914282
:1052C00001DC042119E0164A914201DC052114E0B9
:1052D000144A914201DC06210FE0134A914201DC9D
:1052E00007210AE0114A914201DC082105E0104A39
:1052F000914201DC092100E00A211C3001F083F910
:10530000002802D00020C04310BD002010BD0000C6
:10531000000048410000D041000050420000D0424F
:10532000000050430000D043004050440080CF4470
:105330000020504501200870487000208870C87017
:105340007D2212014A6010228A60C860024A0A6106
:105350004A618861704700000020D045F8B50446D6
:1053600020461C300121074601F0C0F80026F64314
:10537000002801D03046F8BD0121384601F0D0F8B0
:10538000002801D03046F8BD0021384601F0E9F888
:10539000002801D03046F8BD04252034E5720021F4
:1053A000384601F0D1F9002801D03046F8BD00217F
:1053B000384601F003FA002801D03046F8BD2573C5
:1053C0000021384601F01FF9002801D03046F8BD11
:1053D0000621384601F055F9002801D03046F8BDC5
:1053E000012020720020F8BD10B51C3001F0B2F889
:1053F000002802D00020C04310BD002010BD0000D6
:1054000070B5044600256E1E002C19D00868206077
:105410004A6862608A68A2600A7B22730A69226114
:105420004A6962618969A161104921621049E1619B
:105430006462002806D08047002805D0354612E077
:10544000354610E035460EE0A06802280BD1282032
:10545000005D002807D10C221221204600F00AF836
:10546000002800D03546284670BD00003F55000892
:105470004958000807B5012302AA1C3001F022F99F
:10548000002802D00020C0430EBD00200EBD000049
:1054900070B5044600251148206011486060002066
:1054A000A0600121E16020616061A061E061206293
:1054B0002046FCF715F9002800D0012500212046E0
:1054C000FCF790F8002800D0012500212046FCF7C9
:1054D000BBF8002800D00125284670BD00540040CC
:1054E000280C2000704700008307FF22DB0E9A4043
:1054F0008907090E994000280BDA0007000F0838C9
:10550000830808489B001818C36993430B43C36181
:105510007047830804489B001818036893430B43A3
:105520000360704700ED00E000E400E010B5FAF71A
:1055300009FE10BD10B5FAF722FE10BD704730B459
:10554000047B45692046AC4630BC604738B504460C
:10555000174D2889401C844206D10020FBF75AF9D8
:10556000144B07CBFBF734F9A9890020491C8C4266
:1055700009D10090684600F01DF969460020085ED8
:1055800000F004F90CE0E989491C8C4208D1009034
:105590006846FDF7F3FD69460020085EFDF7DAFD79
:1055A000A888002802D0A88800F0A3FC38BD00001D
:1055B0000C00002018020020FFB581B004461646FA
:1055C0001D46FCF709F807463146264640360029B5
:1055D00026D050E0681C23D0002D04D0FBF7FCFF40
:1055E000C01BA8421CD920684268E0218A4342605F
:1055F00020680168402291430160A06AD10188427D
:1056000007D1206802688A430260206802680A4362
:1056100002600120707400203074032005B0F0BDDA
:105620002068816802988843D4D129E0681C22D080
:10563000002D04D0FBF7D0FFC01BA8421BD9206867
:105640004268E0218A4342602068026840218A4320
:105650000260A06AC901884207D1206802688A43B3
:105660000260206802680A43026001207074002012
:1056700030740320D2E72068816802988843D5D02F
:105680000020CBE7704710B5FDF7DAFD002801D008
:10569000012010BD002010BD10B54078FDF726FE9A
:1056A000002801D0012010BD002010BD10B54078A9
:1056B000FDF736FE002801D0012010BD002010BDEE
:1056C00010B5FCF7B7F902484168491C416010BDAC
:1056D0000000002070B594B0154CA06B2104084365
:1056E000A063144801680322D2029143C2148918AE
:1056F00001600220019001260496102105910B9073
:1057000000250C9540040D9000010E9001A8FCF7B7
:10571000EDFA0F9603201090119512951395012123
:105720000FA8FCF7C9F9606B3043606314B070BD1B
:1057300000100240007000401048016882151143BB
:105740000160C1680E4A1140C16001680D4A1140F4
:105750000160816849084900816001680122920462
:1057600091430160C168FD2212049143C160002190
:1057700001610549C00388607047000000100240C5
:105780000C40FF88F6FFF6FE00ED00E001B582B0A8
:1057900002A800900648022381890022408900F077
:1057A000E7FB002801D047200EBD00200EBD000001
:1057B0000C0000207CB50446002001900E4D01A98C
:1057C000A869FBF7A6FC002814D1684600790128D7
:1057D00010D16946A869FBF747FC08490098FAF719
:1057E00040FDFAF7CFFE0022054BFAF7B5FDFAF7B8
:1057F000A5FE20807CBD00000C00002000002041A0
:105800000000E03F10B50446FBF76AFD2168401A2E
:10581000401C6168814201D2012010BD002010BDF2
:1058200010B504466160FBF75BFD206010BD000011
:1058300010B5044C2078002803D001F067F8002050
:10584000207010BD0C00002030B4047B0569204698
:10585000AC4630BC604700000FB410B503A9044B40
:10586000044A029800F03CF810BC08BC04B0184789
:10587000B1600008140200202021020C01D0102188
:105880001046020A01D010460839020901D010461C
:10589000091F820801D01046891E420801D0881EC7
:1058A0007047081A704730B47446641E2578641C2B
:1058B000AB4200D21D46635D5B00E31830BC184765
:1058C00002E008C8121F08C1002AFAD170477047C9
:1058D000002001E001C1121F002AFBD17047000027
:1058E000FFB58DB00F460546002606E025280AD0F4
:1058F000109A0F9990476D1C761C28780028F5D1D6
:10590000304611B0F0BD00240121674A009400E048
:1059100004436D1C2B780846203B98401042F7D179
:1059200028782E2815D10420044368786D1C2A2875
:105930000AD101CF6D1C00900BE000990A2251435F
:10594000303940186D1C00902878014630390929FB
:10595000F3D92878692843D006DC0028D0D0632802
:105960000BD0642804D13BE073280FD075284CD0AD
:10597000109A0F999047761C94E03878694608721F
:105980000020487202A80190012003E038680190CD
:105990000020C0433F1D61070CD5002400E0641CBB
:1059A00000998C420FDA8442F9DB0199095D0029E4
:1059B000F5D108E0002400E0641C8442FCDB01997E
:1059C000095D0029F8D1361907E00198019900789E
:1059D000491C0191109A0F999047641EF5D261E01D
:1059E0000A20019001CF002802DA40422D2102E076
:1059F000210504D52B216A461172012103E0E1073C
:105A000001D02021F7E70C9104E00A20019001CF9A
:105A100000210C910BA90B9108E00199FAF768FBA2
:105A20000A460B993032491E0B910A700028F4D1B6
:105A30000B9803A9081A20300190600701D500983F
:105A400001E0012000900199884203DD01460198A0
:105A5000081A00E000200024009006E002A8109A36
:105A6000005D0F999047641C761C0C988442F5DB0E
:105A700004E0109A30200F999047761C0099481E38
:105A800000900029F5DC08E00B980B990078491C80
:105A90000B91109A0F999047761C0199481E01901E
:105AA0000029F1DC6D1C28E70928010070B58AB0D7
:105AB0000C4615461E4603900722002101A8FFF759
:105AC00039FD1822002104A8FFF734FD3F20694664
:105AD00008828A20488203A806900120079001A826
